{
  "transactions": [
    {
      "hash": "0x882654b11d0b314a3a81ec4443ee2116d0f262d8bfb63a0e76fd37cb5040b7f9",
      "transactionType": "CALL",
      "contractName": null,
      "contractAddress": "0x5a61d594351d4754d6496b5b51237b3ecb8d1e34",
      "function": "mint(uint256)",
      "arguments": [
        "1000000000000000000000"
      ],
      "transaction": {
        "from": "0x51908f598a5e0d8f1a3babfa6df76f9704dad072",
        "to": "0x5a61d594351d4754d6496b5b51237b3ecb8d1e34",
        "gas": "0x17d17",
        "value": "0x0",
        "input": "0xa0712d6800000000000000000000000000000000000000000000003635c9adc5dea00000",
        "nonce": "0x176",
        "chainId": "0x14a34"
      },
      "additionalContracts": [],
      "isFixedGasLimit": false
    }
  ],
  "receipts": [
    {
      "status": "0x1",
      "cumulativeGasUsed": "0x2a6bc8",
      "logs": [
        {
          "address": "0x5a61d594351d4754d6496b5b51237b3ecb8d1e34",
          "topics": [
            "0xddf252ad1be2c89b69c2b068fc378daa952ba7f163c4a11628f55a4df523b3ef",
            "0x0000000000000000000000000000000000000000000000000000000000000000",
            "0x00000000000000000000000051908f598a5e0d8f1a3babfa6df76f9704dad072"
          ],
          "data": "0x00000000000000000000000000000000000000000000003635c9adc5dea00000",
          "blockHash": "0xf65c80fb6ade27ae5670176d79c780c153cf359b1bc98837db308dfbdcaaa046",
          "blockNumber": "0x23a02cc",
          "blockTimestamp": "0x69876478",
          "transactionHash": "0x882654b11d0b314a3a81ec4443ee2116d0f262d8bfb63a0e76fd37cb5040b7f9",
          "transactionIndex": "0x11",
          "logIndex": "0x2d",
          "removed": false
        }
      ],
      "logsBloom": "0x00000000000000000000000000000000000000000000000000000000100000000000000000000200000000000400000000000000000000000000000000000000000000000000000040000008000000000000000000000000000000000000000000000000820000000000000000000800000000000000000000000010000000000000000000000000000000000000000000000000000000000000200000000000000000000000000000000000000000000000000000000000000000000000000000000002000000000000000000000000000000000000000000000000000020000000000000000000000000000000000000000000000000000000000000000000",
      "type": "0x2",
      "transactionHash": "0x882654b11d0b314a3a81ec4443ee2116d0f262d8bfb63a0e76fd37cb5040b7f9",
      "transactionIndex": "0x11",
      "blockHash": "0xf65c80fb6ade27ae5670176d79c780c153cf359b1bc98837db308dfbdcaaa046",
      "blockNumber": "0x23a02cc",
      "gasUsed": "0x113e8",
      "effectiveGasPrice": "0x124f80",
      "blobGasUsed": "0x79e0",
      "from": "0x51908f598a5e0d8f1a3babfa6df76f9704dad072",
      "to": "0x5a61d594351d4754d6496b5b51237b3ecb8d1e34",
      "contractAddress": null,
      "daFootprintGasScalar": "0x138",
      "l1BaseFeeScalar": "0x44d",
      "l1BlobBaseFee": "0x397feed",
      "l1BlobBaseFeeScalar": "0xa118b",
      "l1Fee": "0x15831e4d8",
      "l1GasPrice": "0x3cc683aa",
      "l1GasUsed": "0x640"
    }
  ],
  "libraries": [],
  "pending": [],
  "returns": {},
  "timestamp": 1770480761611,
  "chain": 84532,
  "commit": "8d4e813"
}