{
  "transactions": [
    {
      "hash": "0x39e189f2d4855d6f5b4bbcff4fa905a734d119f1baf75d811485fe6b143636b9",
      "transactionType": "CALL",
      "contractName": null,
      "contractAddress": "0x05e73354cfdd6745c338b50bcfdfa3aa6fa03408",
      "function": "initialize((address,address,uint24,int24,address),uint160)",
      "arguments": [
        "(0x036CbD53842c5426634e7929541eC2318f3dCF7e, 0xC5a9790999eB9f94b53952647540557aBB08012f, 8388608, 60, 0x79120eD7e1e2Cc8059124713AF4B21DE21AD4080)",
        "79228162514264337593543950336000000"
      ],
      "transaction": {
        "from": "0x8346288c03ab0f8de9916fb7a778d757dfb7832e",
        "to": "0x05e73354cfdd6745c338b50bcfdfa3aa6fa03408",
        "gas": "0x12943",
        "value": "0x0",
        "input": "0x6276cbbe000000000000000000000000036cbd53842c5426634e7929541ec2318f3dcf7e000000000000000000000000c5a9790999eb9f94b53952647540557abb08012f0000000000000000000000000000000000000000000000000000000000800000000000000000000000000000000000000000000000000000000000000000003c00000000000000000000000079120ed7e1e2cc8059124713af4b21de21ad408000000000000000000000000000000000000f4240000000000000000000000000",
        "nonce": "0x66",
        "chainId": "0x14a34"
      },
      "additionalContracts": [],
      "isFixedGasLimit": false
    }
  ],
  "receipts": [
    {
      "status": "0x1",
      "cumulativeGasUsed": "0x17fd8",
      "logs": [
        {
          "address": "0x05e73354cfdd6745c338b50bcfdfa3aa6fa03408",
          "topics": [
            "0xdd466e674ea557f56295e2d0218a125ea4b4f0f6f3307b95f85e6110838d6438",
            "0x53d1e37bbb83bccec1cd37f195dbeb13850e5ab1ce519b9608d72685bb7ba6bc",
            "0x000000000000000000000000036cbd53842c5426634e7929541ec2318f3dcf7e",
            "0x000000000000000000000000c5a9790999eb9f94b53952647540557abb08012f"
          ],
          "data": "0x0000000000000000000000000000000000000000000000000000000000800000000000000000000000000000000000000000000000000000000000000000003c00000000000000000000000079120ed7e1e2cc8059124713af4b21de21ad408000000000000000000000000000000000000f42400000000000000000000000000000000000000000000000000000000000000000000000000000000000043764",
          "blockHash": "0x0000000000000000000000000000000000000000000000000000000000000000",
          "blockNumber": "0x23a6f58",
          "blockTimestamp": "0x69883d90",
          "transactionHash": "0x39e189f2d4855d6f5b4bbcff4fa905a734d119f1baf75d811485fe6b143636b9",
          "transactionIndex": "0x1",
          "logIndex": "0x0",
          "removed": false
        }
      ],
      "logsBloom": "0x00000000000000000000010000000000000000000000000000000000000000000000000100000000000000000000000000000000000000000000000000000000000000000000000000000000000000000000000000000000000000000000000000000100000000000000000000000000000000000010000000000000000000000000000044000008000000000000000000000001000000000000000000200010000000000000000000000000000000000000000000000000100000000000000000000000001000000000000000000000000000000000000000000000200000000000000000000000040000000040000000000000000000000000000000000000",
      "type": "0x2",
      "transactionHash": "0x39e189f2d4855d6f5b4bbcff4fa905a734d119f1baf75d811485fe6b143636b9",
      "transactionIndex": "0x1",
      "blockHash": "0x0000000000000000000000000000000000000000000000000000000000000000",
      "blockNumber": "0x23a6f58",
      "gasUsed": "0xcb42",
      "effectiveGasPrice": "0x124f80",
      "blobGasUsed": "0xaaa0",
      "from": "0x8346288c03ab0f8de9916fb7a778d757dfb7832e",
      "to": "0x05e73354cfdd6745c338b50bcfdfa3aa6fa03408",
      "contractAddress": null,
      "daFootprintGasScalar": "0x138",
      "l1BaseFeeScalar": "0x44d",
      "l1BlobBaseFee": "0x39ece83",
      "l1BlobBaseFeeScalar": "0xa118b",
      "l1Fee": "0x1d6d86d02",
      "l1GasPrice": "0x367b6cd1",
      "l1GasUsed": "0x8c9"
    }
  ],
  "libraries": [],
  "pending": [],
  "returns": {},
  "timestamp": 1770536334,
  "chain": 84532,
  "commit": "91a1e17"
}