{
  "transactions": [
    {
      "hash": "0x2743c07ccde8782e7a9d67081b8eb7ef6ed8839ce16fe298d5b13cd42cd4a20d",
      "transactionType": "CALL",
      "contractName": null,
      "contractAddress": "0x05e73354cfdd6745c338b50bcfdfa3aa6fa03408",
      "function": "initialize((address,address,uint24,int24,address),uint160)",
      "arguments": [
        "(0x036CbD53842c5426634e7929541eC2318f3dCF7e, 0x5a61d594351d4754D6496b5B51237b3eCb8d1E34, 8388608, 60, 0x7Fa22A4e100b1251209B89b93ec070fcA22A8080)",
        "79228162514264337593543950336000000"
      ],
      "transaction": {
        "from": "0x51908f598a5e0d8f1a3babfa6df76f9704dad072",
        "to": "0x05e73354cfdd6745c338b50bcfdfa3aa6fa03408",
        "gas": "0x12943",
        "value": "0x0",
        "input": "0x6276cbbe000000000000000000000000036cbd53842c5426634e7929541ec2318f3dcf7e0000000000000000000000005a61d594351d4754d6496b5b51237b3ecb8d1e340000000000000000000000000000000000000000000000000000000000800000000000000000000000000000000000000000000000000000000000000000003c0000000000000000000000007fa22a4e100b1251209b89b93ec070fca22a808000000000000000000000000000000000000f4240000000000000000000000000",
        "nonce": "0x177",
        "chainId": "0x14a34"
      },
      "additionalContracts": [],
      "isFixedGasLimit": false
    }
  ],
  "receipts": [
    {
      "status": "0x1",
      "cumulativeGasUsed": "0x256cdb",
      "logs": [
        {
          "address": "0x05e73354cfdd6745c338b50bcfdfa3aa6fa03408",
          "topics": [
            "0xdd466e674ea557f56295e2d0218a125ea4b4f0f6f3307b95f85e6110838d6438",
            "0x517a1f06ffd0e4db7cb5829454725af944e211d95864fe211ffa858bfb5011ee",
            "0x000000000000000000000000036cbd53842c5426634e7929541ec2318f3dcf7e",
            "0x0000000000000000000000005a61d594351d4754d6496b5b51237b3ecb8d1e34"
          ],
          "data": "0x0000000000000000000000000000000000000000000000000000000000800000000000000000000000000000000000000000000000000000000000000000003c0000000000000000000000007fa22a4e100b1251209b89b93ec070fca22a808000000000000000000000000000000000000f42400000000000000000000000000000000000000000000000000000000000000000000000000000000000043764",
          "blockHash": "0x0000000000000000000000000000000000000000000000000000000000000000",
          "blockNumber": "0x23a02e9",
          "blockTimestamp": "0x698764b2",
          "transactionHash": "0x2743c07ccde8782e7a9d67081b8eb7ef6ed8839ce16fe298d5b13cd42cd4a20d",
          "transactionIndex": "0xe",
          "logIndex": "0x36",
          "removed": false
        }
      ],
      "logsBloom": "0x00000000000000000004000000000000000000000000000000000000000000000000000100000002000001000000000000000000000000000000000000000000000000000000000000000000000000000000000000000000000000000000000000000000000000000000000000000000400000000000000000000000000000000000100044000008000000000000000000000001000000000000000000200000000000000000000000000000000000000000000000000000100000000000000000000000001000000000000000004000000000000000000000000000000000000000000000000000000000000040000000000000000000000000000000000000",
      "type": "0x2",
      "transactionHash": "0x2743c07ccde8782e7a9d67081b8eb7ef6ed8839ce16fe298d5b13cd42cd4a20d",
      "transactionIndex": "0xe",
      "blockHash": "0x0000000000000000000000000000000000000000000000000000000000000000",
      "blockNumber": "0x23a02e9",
      "gasUsed": "0xcb42",
      "effectiveGasPrice": "0x124f80",
      "blobGasUsed": "0xad10",
      "from": "0x51908f598a5e0d8f1a3babfa6df76f9704dad072",
      "to": "0x05e73354cfdd6745c338b50bcfdfa3aa6fa03408",
      "contractAddress": null,
      "daFootprintGasScalar": "0x138",
      "l1BaseFeeScalar": "0x44d",
      "l1BlobBaseFee": "0x38a568e",
      "l1BlobBaseFeeScalar": "0xa118b",
      "l1Fee": "0x1d50b84b9",
      "l1GasPrice": "0x3e8e4043",
      "l1GasUsed": "0x8e4"
    }
  ],
  "libraries": [],
  "pending": [],
  "returns": {},
  "timestamp": 1770480817700,
  "chain": 84532,
  "commit": "8d4e813"
}