{
  "transactions": [
    {
      "hash": "0x544076e8a8c73087bd7978e1be3c6d44f93ba3ca7f89f6d76a5add597023d203",
      "transactionType": "CALL",
      "contractName": null,
      "contractAddress": "0x05e73354cfdd6745c338b50bcfdfa3aa6fa03408",
      "function": "initialize((address,address,uint24,int24,address),uint160)",
      "arguments": [
        "(0x036CbD53842c5426634e7929541eC2318f3dCF7e, 0x774DD9f4b87CE3f46f258Dc503e804916B0153Be, 8388608, 60, 0x5273D0C12CB1Ab06b573e57eA4C5039160B98080)",
        "79228162514264337593543950336000000"
      ],
      "transaction": {
        "from": "0x8346288c03ab0f8de9916fb7a778d757dfb7832e",
        "to": "0x05e73354cfdd6745c338b50bcfdfa3aa6fa03408",
        "gas": "0x12943",
        "value": "0x0",
        "input": "0x6276cbbe000000000000000000000000036cbd53842c5426634e7929541ec2318f3dcf7e000000000000000000000000774dd9f4b87ce3f46f258dc503e804916b0153be0000000000000000000000000000000000000000000000000000000000800000000000000000000000000000000000000000000000000000000000000000003c0000000000000000000000005273d0c12cb1ab06b573e57ea4c5039160b9808000000000000000000000000000000000000f4240000000000000000000000000",
        "nonce": "0x75",
        "chainId": "0x14a34"
      },
      "additionalContracts": [],
      "isFixedGasLimit": false
    }
  ],
  "receipts": [
    {
      "status": "0x1",
      "cumulativeGasUsed": "0x47518",
      "logs": [
        {
          "address": "0x05e73354cfdd6745c338b50bcfdfa3aa6fa03408",
          "topics": [
            "0xdd466e674ea557f56295e2d0218a125ea4b4f0f6f3307b95f85e6110838d6438",
            "0xdd9d92b4c6178fec5cf3140230947529ed370b9bd38d054052894a33aa6aa225",
            "0x000000000000000000000000036cbd53842c5426634e7929541ec2318f3dcf7e",
            "0x000000000000000000000000774dd9f4b87ce3f46f258dc503e804916b0153be"
          ],
          "data": "0x0000000000000000000000000000000000000000000000000000000000800000000000000000000000000000000000000000000000000000000000000000003c0000000000000000000000005273d0c12cb1ab06b573e57ea4c5039160b9808000000000000000000000000000000000000f42400000000000000000000000000000000000000000000000000000000000000000000000000000000000043764",
          "blockHash": "0x0000000000000000000000000000000000000000000000000000000000000000",
          "blockNumber": "0x23a6f8d",
          "blockTimestamp": "0x69883dfa",
          "transactionHash": "0x544076e8a8c73087bd7978e1be3c6d44f93ba3ca7f89f6d76a5add597023d203",
          "transactionIndex": "0x2",
          "logIndex": "0xa",
          "removed": false
        }
      ],
      "logsBloom": "0x00000000000000000000000000000000000000000000000000000000000000000000000100000040000000000000000000000000000000000000000000000000000000000000000000000000000000000000000000000000000000000000000000000000000000000000000000000000000000000000000000000000000001000000000044000008000000000000000000000001000000400000000000200000000000000000000000000000000000000000000000000000100000000000000000000000001000000000000000000000000002000000000000000000000000000000000000000000020000000040000000000000000000000004000000000000",
      "type": "0x2",
      "transactionHash": "0x544076e8a8c73087bd7978e1be3c6d44f93ba3ca7f89f6d76a5add597023d203",
      "transactionIndex": "0x2",
      "blockHash": "0x0000000000000000000000000000000000000000000000000000000000000000",
      "blockNumber": "0x23a6f8d",
      "gasUsed": "0xcb42",
      "effectiveGasPrice": "0x124f80",
      "blobGasUsed": "0xaaa0",
      "from": "0x8346288c03ab0f8de9916fb7a778d757dfb7832e",
      "to": "0x05e73354cfdd6745c338b50bcfdfa3aa6fa03408",
      "contractAddress": null,
      "daFootprintGasScalar": "0x138",
      "l1BaseFeeScalar": "0x44d",
      "l1BlobBaseFee": "0x36f89ba",
      "l1BlobBaseFeeScalar": "0xa118b",
      "l1Fee": "0x3042f08c5",
      "l1GasPrice": "0x3dcc13e0",
      "l1GasUsed": "0x8c9"
    }
  ],
  "libraries": [],
  "pending": [],
  "returns": {},
  "timestamp": 1770536440,
  "chain": 84532,
  "commit": "91a1e17"
}