{
  "transactions": [
    {
      "hash": "0x6c4ff189dbf291dde7a8700b7018360c87e4f00d5133f39366a32cac8b80db5d",
      "transactionType": "CALL",
      "contractName": null,
      "contractAddress": "0xe03a1074c86cfedd5c142c4f04f1a1536e203543",
      "function": "initialize((address,address,uint24,int24,address),uint160)",
      "arguments": [
        "(0x1c7D4B196Cb0C7B01d743Fbc6116a902379C7238, 0x5548142Fdef919c1511910BDeaD90B64F3836B1D, 8388608, 60, 0xa3DAd2A6Fa2E09Cb5c50fb3d1f13a751E0E28080)",
        "79228162514264337593543950336000000"
      ],
      "transaction": {
        "from": "0x51908f598a5e0d8f1a3babfa6df76f9704dad072",
        "to": "0xe03a1074c86cfedd5c142c4f04f1a1536e203543",
        "gas": "0x12943",
        "value": "0x0",
        "input": "0x6276cbbe0000000000000000000000001c7d4b196cb0c7b01d743fbc6116a902379c72380000000000000000000000005548142fdef919c1511910bdead90b64f3836b1d0000000000000000000000000000000000000000000000000000000000800000000000000000000000000000000000000000000000000000000000000000003c000000000000000000000000a3dad2a6fa2e09cb5c50fb3d1f13a751e0e2808000000000000000000000000000000000000f4240000000000000000000000000",
        "nonce": "0x367",
        "chainId": "0xaa36a7"
      },
      "additionalContracts": [],
      "isFixedGasLimit": false
    }
  ],
  "receipts": [
    {
      "status": "0x1",
      "cumulativeGasUsed": "0x8fcac5",
      "logs": [
        {
          "address": "0xe03a1074c86cfedd5c142c4f04f1a1536e203543",
          "topics": [
            "0xdd466e674ea557f56295e2d0218a125ea4b4f0f6f3307b95f85e6110838d6438",
            "0xdb5c5d7dc868d68e9e8f2d7463ed96130e93f9792a5fdb65e0d0b5b871bff25c",
            "0x0000000000000000000000001c7d4b196cb0c7b01d743fbc6116a902379c7238",
            "0x0000000000000000000000005548142fdef919c1511910bdead90b64f3836b1d"
          ],
          "data": "0x0000000000000000000000000000000000000000000000000000000000800000000000000000000000000000000000000000000000000000000000000000003c000000000000000000000000a3dad2a6fa2e09cb5c50fb3d1f13a751e0e2808000000000000000000000000000000000000f42400000000000000000000000000000000000000000000000000000000000000000000000000000000000043764",
          "blockHash": "0x082f3b7f4b5fb0f22da36390dc26579e1011d75d8278e49d59f2161ae1a63011",
          "blockNumber": "0x9bd0f5",
          "blockTimestamp": "0x698764a4",
          "transactionHash": "0x6c4ff189dbf291dde7a8700b7018360c87e4f00d5133f39366a32cac8b80db5d",
          "transactionIndex": "0x54",
          "logIndex": "0xb2",
          "removed": false
        }
      ],
      "logsBloom": "0x00000000000000000000000000000000000000000000000000000000000000000000000000000000000000000000000800000100000004000000000000000000100000000000000000000000000000000000000000000000000000000000100000000000080000000000000000000000000000000000100000000000000000000040000000000008000000000000000000000001000000000000000000200080000000000010000000000000000000000000008000000000000000000000000000000000000000000000000000000000000000000000000000000000000000001000000000000000000000000000000000000000000000000000000000000000",
      "type": "0x2",
      "transactionHash": "0x6c4ff189dbf291dde7a8700b7018360c87e4f00d5133f39366a32cac8b80db5d",
      "transactionIndex": "0x54",
      "blockHash": "0x082f3b7f4b5fb0f22da36390dc26579e1011d75d8278e49d59f2161ae1a63011",
      "blockNumber": "0x9bd0f5",
      "gasUsed": "0xcb42",
      "effectiveGasPrice": "0x3d2650a8",
      "from": "0x51908f598a5e0d8f1a3babfa6df76f9704dad072",
      "to": "0xe03a1074c86cfedd5c142c4f04f1a1536e203543",
      "contractAddress": null
    }
  ],
  "libraries": [],
  "pending": [],
  "returns": {},
  "timestamp": 1770480805541,
  "chain": 11155111,
  "commit": "8d4e813"
}