{
  "transactions": [
    {
      "hash": "0x0128df06fbc8fab9d70585b044cdf400cf36b5df837db4cfa751cd81a75881f3",
      "transactionType": "CALL",
      "contractName": null,
      "contractAddress": "0x00b036b58a818b1bc34d502d3fe730db729e62ac",
      "function": "initialize((address,address,uint24,int24,address),uint160)",
      "arguments": [
        "(0x08FeD32A2043DbCFbb1CE9d9b62416B9095CaD13, 0x31d0220469e10c4E71834a79b1f276d740d3768F, 8388608, 60, 0xE50a8608E41FA7C8B9ce042a96b6351549EE4080)",
        "79228162514264337593543"
      ],
      "transaction": {
        "from": "0x51908f598a5e0d8f1a3babfa6df76f9704dad072",
        "to": "0x00b036b58a818b1bc34d502d3fe730db729e62ac",
        "gas": "0x11932",
        "value": "0x0",
        "input": "0x6276cbbe00000000000000000000000008fed32a2043dbcfbb1ce9d9b62416b9095cad1300000000000000000000000031d0220469e10c4e71834a79b1f276d740d3768f0000000000000000000000000000000000000000000000000000000000800000000000000000000000000000000000000000000000000000000000000000003c000000000000000000000000e50a8608e41fa7c8b9ce042a96b6351549ee40800000000000000000000000000000000000000000000010c6f7a0b5ed8d36b4c7",
        "nonce": "0x12",
        "chainId": "0x515"
      },
      "additionalContracts": [],
      "isFixedGasLimit": false
    }
  ],
  "receipts": [
    {
      "status": "0x1",
      "cumulativeGasUsed": "0x345bd",
      "logs": [
        {
          "address": "0x00b036b58a818b1bc34d502d3fe730db729e62ac",
          "topics": [
            "0xdd466e674ea557f56295e2d0218a125ea4b4f0f6f3307b95f85e6110838d6438",
            "0x9b1bf45e6b829016af599c40fa076a4f65af0c67c38c43589569a9273d50f1ee",
            "0x00000000000000000000000008fed32a2043dbcfbb1ce9d9b62416b9095cad13",
            "0x00000000000000000000000031d0220469e10c4e71834a79b1f276d740d3768f"
          ],
          "data": "0x0000000000000000000000000000000000000000000000000000000000800000000000000000000000000000000000000000000000000000000000000000003c000000000000000000000000e50a8608e41fa7c8b9ce042a96b6351549ee40800000000000000000000000000000000000000000000010c6f7a0b5ed8d36b4c7fffffffffffffffffffffffffffffffffffffffffffffffffffffffffffbc89b",
          "blockHash": "0x0000000000000000000000000000000000000000000000000000000000000000",
          "blockNumber": "0x299b776",
          "blockTimestamp": "0x698764c2",
          "transactionHash": "0x0128df06fbc8fab9d70585b044cdf400cf36b5df837db4cfa751cd81a75881f3",
          "transactionIndex": "0x3",
          "logIndex": "0x1",
          "removed": false
        }
      ],
      "logsBloom": "0x00000000000000000000080080000000000000000000000000000000000000000000000002000080000000000000000000000000000000000000000000000000000000000000000000000000000000000000000000000000000000000000000000000000000000000000000000000000000000000000000000000000000400000000000000000008000000000008000000000001000000400000000000200000000000000000000000000000000000000000000000000000000000000000000000000000000000008000000000000000000000000000000000000000000100000000000000001000000000000000000000000000000002000000000000000010",
      "type": "0x2",
      "transactionHash": "0x0128df06fbc8fab9d70585b044cdf400cf36b5df837db4cfa751cd81a75881f3",
      "transactionIndex": "0x3",
      "blockHash": "0x0000000000000000000000000000000000000000000000000000000000000000",
      "blockNumber": "0x299b776",
      "gasUsed": "0xcb95",
      "effectiveGasPrice": "0x7a121",
      "blobGasUsed": "0xdac0",
      "from": "0x51908f598a5e0d8f1a3babfa6df76f9704dad072",
      "to": "0x00b036b58a818b1bc34d502d3fe730db729e62ac",
      "contractAddress": null,
      "daFootprintGasScalar": "0x190",
      "l1BaseFeeScalar": "0x7d0",
      "l1BlobBaseFee": "0x3798cdf",
      "l1BlobBaseFeeScalar": "0xdbba0",
      "l1Fee": "0x2c9b7e4ca",
      "l1GasPrice": "0x3fc6e4ab",
      "l1GasUsed": "0x8c9"
    }
  ],
  "libraries": [],
  "pending": [],
  "returns": {},
  "timestamp": 1770480833606,
  "chain": 1301,
  "commit": "8d4e813"
}