{
  "transactions": [
    {
      "hash": "0x5edd7347de659594fc166ad819fb3153f764485d87f8d6bb2df46fdef314894a",
      "transactionType": "CALL",
      "contractName": null,
      "contractAddress": "0x5548142fdef919c1511910bdead90b64f3836b1d",
      "function": "mint(uint256)",
      "arguments": [
        "1000000000000000000000"
      ],
      "transaction": {
        "from": "0x51908f598a5e0d8f1a3babfa6df76f9704dad072",
        "to": "0x5548142fdef919c1511910bdead90b64f3836b1d",
        "gas": "0x17d17",
        "value": "0x0",
        "input": "0xa0712d6800000000000000000000000000000000000000000000003635c9adc5dea00000",
        "nonce": "0x366",
        "chainId": "0xaa36a7"
      },
      "additionalContracts": [],
      "isFixedGasLimit": false
    }
  ],
  "receipts": [
    {
      "status": "0x1",
      "cumulativeGasUsed": "0x97608e",
      "logs": [
        {
          "address": "0x5548142fdef919c1511910bdead90b64f3836b1d",
          "topics": [
            "0xddf252ad1be2c89b69c2b068fc378daa952ba7f163c4a11628f55a4df523b3ef",
            "0x0000000000000000000000000000000000000000000000000000000000000000",
            "0x00000000000000000000000051908f598a5e0d8f1a3babfa6df76f9704dad072"
          ],
          "data": "0x00000000000000000000000000000000000000000000003635c9adc5dea00000",
          "blockHash": "0xda5d08ad30220ddb5612613f0ae027d27c27ca67dc770f49e5eb2d803a71a7c5",
          "blockNumber": "0x9bd0f0",
          "blockTimestamp": "0x69876468",
          "transactionHash": "0x5edd7347de659594fc166ad819fb3153f764485d87f8d6bb2df46fdef314894a",
          "transactionIndex": "0x58",
          "logIndex": "0x9f",
          "removed": false
        }
      ],
      "logsBloom": "0x00000000000000000000000000000000000000000000000000000000100000000000001000000200000000000000000000000000000000000000000000000000000000000000000040000008000000000000000000000000000000100000000000000000022000000000000000000800000000000000000000000010000000000000000000000000000000000000000000000000000000000000000000000000000000000000000000000000000000000000000000000000000000000000000000000002000000000000000000000000000000000000000000000000000020000000000000000000000000000000000000000000000000000000000000000000",
      "type": "0x2",
      "transactionHash": "0x5edd7347de659594fc166ad819fb3153f764485d87f8d6bb2df46fdef314894a",
      "transactionIndex": "0x58",
      "blockHash": "0xda5d08ad30220ddb5612613f0ae027d27c27ca67dc770f49e5eb2d803a71a7c5",
      "blockNumber": "0x9bd0f0",
      "gasUsed": "0x113e8",
      "effectiveGasPrice": "0x3eee4466",
      "from": "0x51908f598a5e0d8f1a3babfa6df76f9704dad072",
      "to": "0x5548142fdef919c1511910bdead90b64f3836b1d",
      "contractAddress": null
    }
  ],
  "libraries": [],
  "pending": [],
  "returns": {},
  "timestamp": 1770480745388,
  "chain": 11155111,
  "commit": "8d4e813"
}