{
  "transactions": [
    {
      "hash": "0xb9c5ed20d033942366eda053a32960e60d861f47306a4e5c379680caedde3336",
      "transactionType": "CALL",
      "contractName": null,
      "contractAddress": "0x08fed32a2043dbcfbb1ce9d9b62416b9095cad13",
      "function": "mint(uint256)",
      "arguments": [
        "1000000000000000000000"
      ],
      "transaction": {
        "from": "0x51908f598a5e0d8f1a3babfa6df76f9704dad072",
        "to": "0x08fed32a2043dbcfbb1ce9d9b62416b9095cad13",
        "gas": "0x17d17",
        "value": "0x0",
        "input": "0xa0712d6800000000000000000000000000000000000000000000003635c9adc5dea00000",
        "nonce": "0x11",
        "chainId": "0x515"
      },
      "additionalContracts": [],
      "isFixedGasLimit": false
    }
  ],
  "receipts": [
    {
      "status": "0x1",
      "cumulativeGasUsed": "0x529f6",
      "logs": [
        {
          "address": "0x08fed32a2043dbcfbb1ce9d9b62416b9095cad13",
          "topics": [
            "0xddf252ad1be2c89b69c2b068fc378daa952ba7f163c4a11628f55a4df523b3ef",
            "0x0000000000000000000000000000000000000000000000000000000000000000",
            "0x00000000000000000000000051908f598a5e0d8f1a3babfa6df76f9704dad072"
          ],
          "data": "0x00000000000000000000000000000000000000000000003635c9adc5dea00000",
          "blockHash": "0x0000000000000000000000000000000000000000000000000000000000000000",
          "blockNumber": "0x299b73e",
          "blockTimestamp": "0x6987648a",
          "transactionHash": "0xb9c5ed20d033942366eda053a32960e60d861f47306a4e5c379680caedde3336",
          "transactionIndex": "0x4",
          "logIndex": "0x2",
          "removed": false
        }
      ],
      "logsBloom": "0x00000000000000000000000000000000000000000000000000000000100000000000000000000200000000000000000000000000000000000000000000000000000002000000000040000008000000000000000000000000000000000000000000000000020000000000000000000800000000000000000000000010000200000000000000000000000000000000000000000000000000000000000000000000000000000000000000000000000000000000000000000000000000000000000000000002000000000000000000000000000000000000002000000000000020000000000000000000000000000000000000000000000000000000000000000000",
      "type": "0x2",
      "transactionHash": "0xb9c5ed20d033942366eda053a32960e60d861f47306a4e5c379680caedde3336",
      "transactionIndex": "0x4",
      "blockHash": "0x0000000000000000000000000000000000000000000000000000000000000000",
      "blockNumber": "0x299b73e",
      "gasUsed": "0x113e8",
      "effectiveGasPrice": "0x7a121",
      "blobGasUsed": "0x9c40",
      "from": "0x51908f598a5e0d8f1a3babfa6df76f9704dad072",
      "to": "0x08fed32a2043dbcfbb1ce9d9b62416b9095cad13",
      "contractAddress": null,
      "daFootprintGasScalar": "0x190",
      "l1BaseFeeScalar": "0x7d0",
      "l1BlobBaseFee": "0x38dbba1",
      "l1BlobBaseFeeScalar": "0xdbba0",
      "l1Fee": "0x2c8fb3dad",
      "l1GasPrice": "0x3d649101",
      "l1GasUsed": "0x640"
    }
  ],
  "libraries": [],
  "pending": [],
  "returns": {},
  "timestamp": 1770480777779,
  "chain": 1301,
  "commit": "8d4e813"
}